{
    "abi": [
        {
            "type": "constructor",
            "inputs": [],
            "stateMutability": "nonpayable"
        },
        {
            "type": "function",
            "name": "createUser",
            "inputs": [
                {
                    "name": "_dataHash",
                    "type": "string",
                    "internalType": "string"
                }
            ],
            "outputs": [],
            "stateMutability": "nonpayable"
        },
        {
            "type": "function",
            "name": "editMatch",
            "inputs": [
                {
                    "name": "user1",
                    "type": "address",
                    "internalType": "address"
                },
                {
                    "name": "user2",
                    "type": "address",
                    "internalType": "address"
                },
                {
                    "name": "compatibility",
                    "type": "uint256",
                    "internalType": "uint256"
                }
            ],
            "outputs": [],
            "stateMutability": "nonpayable"
        },
        {
            "type": "function",
            "name": "getAllUsers",
            "inputs": [],
            "outputs": [
                {
                    "name": "",
                    "type": "tuple[]",
                    "internalType": "struct BuilderDataSupplyMarket.User[]",
                    "components": [
                        {
                            "name": "userAddress",
                            "type": "address",
                            "internalType": "address"
                        },
                        {
                            "name": "userHash",
                            "type": "string",
                            "internalType": "string"
                        }
                    ]
                }
            ],
            "stateMutability": "view"
        },
        {
            "type": "function",
            "name": "getSelectedUsers",
            "inputs": [
                {
                    "name": "_usersAddresses",
                    "type": "address[]",
                    "internalType": "address[]"
                }
            ],
            "outputs": [
                {
                    "name": "",
                    "type": "tuple[]",
                    "internalType": "struct BuilderDataSupplyMarket.User[]",
                    "components": [
                        {
                            "name": "userAddress",
                            "type": "address",
                            "internalType": "address"
                        },
                        {
                            "name": "userHash",
                            "type": "string",
                            "internalType": "string"
                        }
                    ]
                }
            ],
            "stateMutability": "view"
        },
        {
            "type": "function",
            "name": "getUser",
            "inputs": [
                {
                    "name": "_addr",
                    "type": "address",
                    "internalType": "address"
                }
            ],
            "outputs": [
                {
                    "name": "",
                    "type": "tuple",
                    "internalType": "struct BuilderDataSupplyMarket.User",
                    "components": [
                        {
                            "name": "userAddress",
                            "type": "address",
                            "internalType": "address"
                        },
                        {
                            "name": "userHash",
                            "type": "string",
                            "internalType": "string"
                        }
                    ]
                }
            ],
            "stateMutability": "view"
        },
        {
            "type": "function",
            "name": "hasPaid",
            "inputs": [
                {
                    "name": "",
                    "type": "address",
                    "internalType": "address"
                }
            ],
            "outputs": [
                {
                    "name": "",
                    "type": "bool",
                    "internalType": "bool"
                }
            ],
            "stateMutability": "view"
        },
        {
            "type": "function",
            "name": "matches",
            "inputs": [
                {
                    "name": "",
                    "type": "address",
                    "internalType": "address"
                },
                {
                    "name": "",
                    "type": "uint256",
                    "internalType": "uint256"
                }
            ],
            "outputs": [
                {
                    "name": "userAddress",
                    "type": "address",
                    "internalType": "address"
                },
                {
                    "name": "compatibilityConstant",
                    "type": "uint256",
                    "internalType": "uint256"
                }
            ],
            "stateMutability": "view"
        },
        {
            "type": "function",
            "name": "payPremiumForExport",
            "inputs": [],
            "outputs": [],
            "stateMutability": "payable"
        },
        {
            "type": "function",
            "name": "updateDataHash",
            "inputs": [
                {
                    "name": "_dataHash",
                    "type": "string",
                    "internalType": "string"
                }
            ],
            "outputs": [],
            "stateMutability": "nonpayable"
        }
    ],
    "bytecode": {
        "object": "0x6080604052348015600e575f80fd5b50610d578061001c5f395ff3fe608060405260043610610084575f3560e01c8063a0d5fe6011610057578063a0d5fe6014610120578063a7ea2e7c146101dc578063b4033da814610208578063e2842d7914610227578063fbf47a9a1461023b575f80fd5b80631a9802e914610088578063507ffba5146100cb5780636f77926b146100ec5780637b788f0814610118575b5f80fd5b348015610093575f80fd5b506100a76100a2366004610908565b610279565b604080516001600160a01b0390931683526020830191909152015b60405180910390f35b3480156100d6575f80fd5b506100ea6100e5366004610975565b6102bb565b005b3480156100f7575f80fd5b5061010b610106366004610a09565b6103c4565b6040516100c29190610a73565b6100ea6104ff565b34801561012b575f80fd5b506100ea61013a366004610a85565b6001600160a01b039283165f818152600260208181526040808420815180830183529789168089528884018881528254600181810185559388528588209a51908702909a0180549a8c166001600160a01b03199b8c161781559051908301558552838352818520825180840190935295825281830196875285548082018755958552919093209251939091029091018054929095169190931617835551910155565b3480156101e7575f80fd5b506101fb6101f6366004610abf565b610564565b6040516100c29190610b6e565b348015610213575f80fd5b506100ea610222366004610975565b610706565b348015610232575f80fd5b506101fb610799565b348015610246575f80fd5b50610269610255366004610a09565b60036020525f908152604090205460ff1681565b60405190151581526020016100c2565b6002602052815f5260405f208181548110610292575f80fd5b5f918252602090912060029091020180546001909101546001600160a01b039091169250905082565b335f908152600160205260409020546001600160a01b0316156102dc575f80fd5b6040805180820182523380825260208083018581525f92835260019182905293909120825181546001600160a01b0319166001600160a01b0390911617815592519192839290918201906103309082610c52565b50505f805460018101825590805282517f290decd9548b62a8d60345a988386fc84ba6bc95484008f6362f93160ef3e563600290920291820180546001600160a01b0319166001600160a01b03909216919091178155602084015184935090917f290decd9548b62a8d60345a988386fc84ba6bc95484008f6362f93160ef3e56401906103bd9082610c52565b5050505050565b604080518082019091525f8152606060208201526001600160a01b038281165f90815260016020526040902054166104385760405162461bcd60e51b8152602060048201526012602482015271155cd95c88191bd95cdb89dd08195e1a5cdd60721b60448201526064015b60405180910390fd5b6001600160a01b038083165f9081526001602081815260409283902083518085019094528054909416835290830180549293929184019161047890610bd1565b80601f01602080910402602001604051908101604052809291908181526020018280546104a490610bd1565b80156104ef5780601f106104c6576101008083540402835291602001916104ef565b820191905f5260205f20905b8154815290600101906020018083116104d257829003601f168201915b5050505050815250509050919050565b66038d7ea4c680003410156105495760405162461bcd60e51b815260206004820152601060248201526f4e6f7420656e6f7567682066756e647360801b604482015260640161042f565b335f908152600360205260409020805460ff19166001179055565b80516060905f8167ffffffffffffffff81111561058357610583610930565b6040519080825280602002602001820160405280156105c857816020015b604080518082019091525f8152606060208201528152602001906001900390816105a15790505b5090505f5b828110156106fe5760015f8683815181106105ea576105ea610d0d565b60200260200101516001600160a01b03166001600160a01b031681526020019081526020015f206040518060400160405290815f82015f9054906101000a90046001600160a01b03166001600160a01b03166001600160a01b0316815260200160018201805461065990610bd1565b80601f016020809104026020016040519081016040528092919081815260200182805461068590610bd1565b80156106d05780601f106106a7576101008083540402835291602001916106d0565b820191905f5260205f20905b8154815290600101906020018083116106b357829003601f168201915b5050505050815250508282815181106106eb576106eb610d0d565b60209081029190910101526001016105cd565b509392505050565b335f818152600160205260409020546001600160a01b0316146107795760405162461bcd60e51b815260206004820152602560248201527f596f7520617265206e6f7420746865206f776e6572206f6620746869732070726044820152646f66696c6560d81b606482015260840161042f565b335f908152600160208190526040909120016107958282610c52565b5050565b335f9081526003602052604090205460609060ff1615156001146107ee5760405162461bcd60e51b815260206004820152600c60248201526b139bdd081c185a59081e595d60a21b604482015260640161042f565b5f805480602002602001604051908101604052809291908181526020015f905b828210156108e4575f848152602090819020604080518082019091526002850290910180546001600160a01b03168252600181018054929391929184019161085590610bd1565b80601f016020809104026020016040519081016040528092919081815260200182805461088190610bd1565b80156108cc5780601f106108a3576101008083540402835291602001916108cc565b820191905f5260205f20905b8154815290600101906020018083116108af57829003601f168201915b5050505050815250508152602001906001019061080e565b50505050905090565b80356001600160a01b0381168114610903575f80fd5b919050565b5f8060408385031215610919575f80fd5b610922836108ed565b946020939093013593505050565b634e487b7160e01b5f52604160045260245ffd5b604051601f8201601f1916810167ffffffffffffffff8111828210171561096d5761096d610930565b604052919050565b5f60208284031215610985575f80fd5b813567ffffffffffffffff81111561099b575f80fd5b8201601f810184136109ab575f80fd5b803567ffffffffffffffff8111156109c5576109c5610930565b6109d8601f8201601f1916602001610944565b8181528560208385010111156109ec575f80fd5b816020840160208301375f91810160200191909152949350505050565b5f60208284031215610a19575f80fd5b610a22826108ed565b9392505050565b60018060a01b0381511682525f60208201516040602085015280518060408601528060208301606087015e5f606082870101526060601f19601f8301168601019250505092915050565b602081525f610a226020830184610a29565b5f805f60608486031215610a97575f80fd5b610aa0846108ed565b9250610aae602085016108ed565b929592945050506040919091013590565b5f60208284031215610acf575f80fd5b813567ffffffffffffffff811115610ae5575f80fd5b8201601f81018413610af5575f80fd5b803567ffffffffffffffff811115610b0f57610b0f610930565b8060051b610b1f60208201610944565b91825260208184018101929081019087841115610b3a575f80fd5b6020850194505b83851015610b6357610b52856108ed565b825260209485019490910190610b41565b979650505050505050565b5f602082016020835280845180835260408501915060408160051b8601019250602086015f5b82811015610bc557603f19878603018452610bb0858351610a29565b94506020938401939190910190600101610b94565b50929695505050505050565b600181811c90821680610be557607f821691505b602082108103610c0357634e487b7160e01b5f52602260045260245ffd5b50919050565b601f821115610c4d57805f5260205f20601f840160051c81016020851015610c2e5750805b601f840160051c820191505b818110156103bd575f8155600101610c3a565b505050565b815167ffffffffffffffff811115610c6c57610c6c610930565b610c8081610c7a8454610bd1565b84610c09565b6020601f821160018114610cb2575f8315610c9b5750848201515b5f19600385901b1c1916600184901b1784556103bd565b5f84815260208120601f198516915b82811015610ce15787850151825560209485019460019092019101610cc1565b5084821015610cfe57868401515f19600387901b60f8161c191681555b50505050600190811b01905550565b634e487b7160e01b5f52603260045260245ffdfea264697066735822122052e62ef2ca2c1fc458d61a136137ac152d7415858957fa1afc9f707fa36c62ca64736f6c634300081a0033",
        "linkReferences": {}
    },
    "methodIdentifiers": {
        "createUser(string)": "507ffba5",
        "editMatch(address,address,uint256)": "a0d5fe60",
        "getAllUsers()": "e2842d79",
        "getSelectedUsers(address[])": "a7ea2e7c",
        "getUser(address)": "6f77926b",
        "hasPaid(address)": "fbf47a9a",
        "matches(address,uint256)": "1a9802e9",
        "payPremiumForExport()": "7b788f08",
        "updateDataHash(string)": "b4033da8"
    },
    "id": 20
}